:060000000A128A110C280F
:10000800FE00030EF6000A08F7000A128A11BB2840
:100018000A128A110F2883133030FD000130FE00C8
:100028009730FF00203084000A128A1188210A12B2
:100038008A11B701B801B901BA01F801F9018301C0
:100048000A128A1127280A128A110D210A128A1106
:100058000F3083120313B500B50B302833288312F1
:1000680003139F140F303905B00000303A05B10072
:100078000A128A11A7210A128A118312031330085F
:100088008700013089000D3083120313B600FB305E
:10009800B500B50B4D28B60B4D2883120313890103
:1000A8003A08B6003908B50004300310B60CB50C90
:1000B800FF3E031D59280F303505B00000303605C6
:1000C800B1000A128A11A7210A128A118312031396
:1000D80030088700023089000D3083120313B60000
:1000E800FB30B500B50B7628B60B762883120313C0
:1000F80089019F1880288128AA280A128A11B52107
:100108000A128A118312031330083104031D8D2843
:100118008E2898280130B0000030B1000A128A11E8
:10012800CF210A128A11A0280030B000B1000A12AB
:100138008A11CF210A128A11203083120313B500C5
:10014800B50BA4280000831203139F143A08380241
:10015800031DB028390837020318B328B428B62875
:1001680086173628861336280A128A110C280B1C83
:10017800BE28BF28DD28831203130618C428C52803
:10018800D0280130F500750888070130B707031833
:10019800B80A0030B807DC288618D328D428DC2809
:1001A800013088020130B7020030031CB803B802DE
:1001B8000B10831203130C1FE228E32806290A12E6
:1001C8008A11C2210A128A1170087104031DED28D0
:1001D800EE28FA280A128A11DB210A128A117108FC
:1001E80083120313BA007008B90003290A128A118E
:1001F800DB210A128A117108F9007008F8008312CD
:1002080003130C1377088A00760E8300FE0E7E0E09
:100218000900033083160317880089018316031326
:1002280089018801831203138801FF3083160313A1
:1002380085008312031385017F300A128A11682111
:100248000A128A1183160313870183120313870185
:100258000030B000B1000A128A1141210A128A1135
:100268008316031308108810081188110F178F16AA
:100278000F120F140B178B170800831203131F0894
:100288003F3940389F00831603131F129F128312B1
:1002980003133008B200B20DB20D1F083206C3397D
:1002A80032069F00831603139F130F308312031324
:1002B800B200B20B5D296029831203131F140C13BB
:1002C800831603130C17080083120313B0003008B9
:1002D800831603138600831203133008831603134F
:1002E80095008312031330088316031396008312B4
:1002F800031386018316031381138B150B10080053
:100308007E088A007F0882000A128A1184210A1254
:100318008A118000840A04087D0603190034FF0A44
:100328000319FE0A8829C034F934A434B034993446
:1003380092348234F8348034983488348334C63420
:10034800A13486348E34831203133008203E84008F
:1003580083130008B200B3013208B0003308B100BB
:100368000800831203131F0CB200320C0F39B300BC
:10037800B4013308B0003408B10008008312031335
:100388001F0CF200720C0F39F300F4017308F0002F
:100398007408F1000800831203133008B200B20D8C
:1003A800B20D1F083206C33932069F0008008312B7
:1003B80003131E08F200F3017208F0007308F1003D
:0203C80008002B
:08400000FF3FFF3FFF3FFF3FC0
:04400E00D420FF3F7C
:00000001FF
